:03000000020B36BA
:0C0B3600787FE4F6D8FD758132020B7D5B
:100CCD002D2D2D2D2D2D52656164792D2D2D2D2D33
:100CDD002D002D2D2D2D2D58756E4A692D2D2D2D57
:100CED00002D2D2D2D2D47656E5375692D2D2D2D17
:100CFD00002D2D2D2D2D42695A68616E672D2D2DDC
:020D0D002D00B7
:090E3F00010E00010D0101080281
:100D930020A70620A603120EC130A70620A6031221
:100DA3000ECA20A70630A603120ED330A70630A61C
:050DB30003120EDC221A
:100DB80020A50620A403120EC130A50620A4031204
:100DC8000ECA20A50630A403120ED330A50630A4FF
:050DD80003120EDC22F5
:100A9800D3E50F648094804009120E6B850E0F1207
:100AA8000000120000120C3F8F0C8E0B8D0A8C096F
:100AB800E4FFFE7D0C7C42AB0CAA0BA90AA8091224
:100AC800071C60054003020EC1120EDC120E8312D1
:100AD8000000120C3F8F178E168D158C14120E6B9A
:100AE800120000120E7712000085080F120C3F8FBB
:100AF800138E128D118C10AB17AA16A915A81412F3
:100B0800071C5009120ED3120000120EDCAF13AEF0
:100B180012AD11AC10AB17AA16A915A81412071C10
:0E0B2800600B4009120ECA120000120EDC22F1
:10094D00E4F526F52712000E120E5F120E6B120043
:10095D0000850E0F120BC2120D407BFF7A0C79CD64
:10096D007D027F02120D0F2095273096243097219E
:10097D00E527640245266010120D407BFF7A0C7945
:10098D00DF7D027F02120D0F752600752702120DF5
:10099D0093309527209624309721E527640345262B
:1009AD006010120D407BFF7A0C79EE7D027F0212F2
:1009BD000D0F752600752703120DB83095A93096C9
:1009CD00A62097A3E527640145266010120D407BF4
:1009DD00FF7A0C79FE7D027F02120D0F75260075D0
:0709ED002701120A98808027
:0D0E5100007F087E017DF3DDFEDEFCDFFA90
:010E5E002271
:080EAF007F127EEBDEFEDFFC8A
:010EB7002218
:040003007F02DFFE9B
:0100070022D6
:050EE500C2B4D2B522E9
:050EEA00C2B4C2B522F4
:050EEF00C2B7D2B322DE
:050EF400C2B7C2B322E9
:090EB800D2B4C2B5D2B7C2B32214
:090EC100C2B4D2B5C2B7D2B3220B
:090ECA00C2B4C2B5C2B7D2B32212
:090ED300C2B4D2B5C2B7C2B32209
:090EDC00C2B4C2B5C2B7C2B32210
:040E4800021800008C
:100E1300758E017598505389F0438920758DFD7542
:090E23008BFDD28ED2AFD2AC22BD
:030023000209F4DB
:1009F400C0E0C0F0C083C082C0D075D000C000C0C9
:0D0A040001C002C003C004C005C006C00749
:100A1100309869C298AF99BF4D06751800751900D5
:100A21000519E5197002051814241AF8A607E51A24
:100A3100644D703CE51B24CE6012146014146016E2
:100A410014601824047029120EC18012120EB8808D
:100A51000D120ECA8008120ED38003120EDC7E0026
:100A61007F0C7D007B007A00791A120844120EAFC8
:0C0A7100E519640C45187004F518F5191F
:100A7D00D007D006D005D004D003D002D001D000CD
:0B0A8D00D0D0D082D083D0F0D0E03277
:0C0E5F0053890F438910E4F58DF58B22B8
:0A0EA500C2A3D2A3120003C2A322CD
:100C3F00E4F58DF58B120EA530A2FDD28E20A2FD0C
:100C4F00C28EAF8DEFFEAD8B7C00E42DFDEC3EFC34
:100C5F00E412079A7B487AE1798A783F1206168F59
:100C6F002B8E2A8D298C287F967E437D8B7C3CABE7
:0A0C7F002BAA2AA929A8281206169C
:010C89002248
:040E4C00022F000071
:10000E005389F0438901758A33758CFED28CC28D6B
:05001E00D2A9D2AF22BF
:0C0E6B00753100753203E4F52FF53022DC
:0C0E7700753100753201E4F52FF53022D2
:0C0E8300753100753205E4F52FF53022C2
:03000B00020C8A5A
:100C8A00C0E0C0D075D000C0000530E53070020564
:100C9A002F758A33758CFEC3E5309532E531648051
:100CAA00F8E52F6480985004D2918002C291E53011
:100CBA006428452F7006F52FF530D291D000D0D098
:030CCA00D0E03245
:1000260000000000000000000000000000000000CA
:10003600000000F80000000000000033300000005F
:1000460000100C06100C0600000000000000000066
:1000560040C07840C0784000043F04043F040400D8
:10006600007088FC08300000001820FF211E0000E8
:10007600F008F000E018000000211C031E211E00FD
:1000860000F00888700000001E2123241927211083
:1000960010160E0000000000000000000000000026
:1000A600000000E0180402000000000718204000CD
:1000B60000020418E00000000040201807000000BD
:1000C600404080F0804040000202010F0102020021
:1000D600000000F0000000000101011F0101010005
:1000E600000000000000000080B07000000000006A
:1000F60000000000000000000001010101010101F3
:100106000000000000000000003030000000000089
:10011600000000008060180400601806010000005E
:1001260000E010080810E000000F102020100F005B
:10013600001010F8000000000020203F20200000E2
:10014600007008080888700000302824222130003A
:1001560000300888884830000018202020110E0042
:100166000000C02010F8000000070424243F2400EB
:1001760000F80888880808000019212020110E00C0
:1001860000E0108888180000000F112020110E00D2
:1001960000380808C83808000000003F00000000CA
:1001A6000070880808887000001C222121221C008B
:1001B60000E010080810E0000000312222110F00B4
:1001C600000000C0C0000000000000303000000049
:1001D60000000080000000000000806000000000B9
:1001E60000008040201008000001020408102000D2
:1001F600404040404040400004040404040404001D
:1002060000081020408000000020100804020100B1
:10021600007048080808F0000000003036010000B1
:10022600C030C828E810E0000718272423140B0064
:100236000000C038E0000000203C230202273820DE
:1002460008F8888888700000203F202020110E00C2
:10025600C0300808080838000718202020100800B9
:1002660008F808080810E000203F202020100F00A2
:1002760008F88888E8081000203F2020232018006E
:1002860008F88888E8081000203F200003000000D6
:10029600C03008080838000007182020221E020077
:1002A60008F808000008F808203F210101213F2036
:1002B600000808F8080800000020203F2020000061
:1002C60000000808F8080800C08080807F00000051
:1002D60008F888C028180800203F2001263820008A
:1002E60008F8080000000000203F202020203000F1
:1002F60008F8F800F8F80800203F003F003F20000B
:1003060008F830C00008F808203F200007183F0012
:10031600E01008080810E0000F10202020100F0041
:1003260008F808080808F000203F21010101000034
:10033600E01008080810E0000F18242438504F0079
:1003460008F8888888887000203F2000030C302039
:1003560000708808080838000038202121221C0077
:10036600180808F8080818000000203F20000000C0
:1003760008F808000008F808001F202020201F00A9
:100386000878880000C83808000007380E01000009
:10039600F80800F80008F800033C0700073C0300D3
:1003A600081868808068180820302C03032C302039
:1003B6000838C800C83808000000203F20000000A8
:1003C60010080808C8380800203826212020180000
:1003D600000000FE020202000000007F40404000D4
:1003E600000C30C000000000000000010638C0000C
:1003F60000020202FE000000004040407F000000B4
:1004060000000402020204000000000000000000D8
:1004160000000000000000008080808080808080D6
:1004260000020204000000000000000000000000BE
:1004360000008080808000000019242222223F20B4
:1004460008F8008080000000003F112020110E00F7
:100456000000008080800000000E11202020110086
:10046600000000808088F800000E112020103F2038
:100476000000808080800000001F222222221300BC
:10048600008080F0888888180020203F2020000007
:100496000000808080808000006B949494936000BC
:1004A60008F8008080800000203F210000203F20C7
:1004B60000809898000000000020203F20200000C7
:1004C600000000809898000000C08080807F0000B7
:1004D60008F8000080808000203F24022D30200094
:1004E600000808F8000000000020203F202000003F
:1004F6008080808080808000203F20003F20003F59
:100506008080008080800000203F210000203F2066
:100516000000808080800000001F202020201F0017
:10052600808000808000000080FFA12020110E0046
:100536000000008080808000000E112020A0FF8037
:10054600808080008080800020203F2120000100E4
:100556000000808080808000003324242424190039
:10056600008080E0808000000000001F2020000046
:100576008080000000808000001F202020103F2087
:10058600808080000080808000010E300806010017
:1005960080800080008080800F300C030C300F00BC
:1005A60000808000808080000020312E0E312000E7
:1005B600808080000080808080818E701806010017
:1005C60000808080808080000021302C2221300035
:1005D60000000000807C020200000000003F404056
:1005E60000000000FF00000000000000FF00000007
:1005F6000002027C800000000040403F0000000036
:1006060000060101020204040000000000000000D0
:0B0E8F00C292D293D29200C2930022C4
:0B0E9A00C292C293D29200D2930022B9
:0B0DDD00120D73120DE8AF06120D732B
:0F0DE800D29300D29200A293E433FF00C2920094
:010DF70022D9
:070D6C00AE07120E8F7F7825
:100D7300E4FBFAC292EF33929300D29200C2920044
:0F0D8300EF25E0FF0BBB00010AEB64084A70E4A8
:010D9200223E
:050E2C00120E31E4FF8D
:0E0E3100120D6C120DE8E4FF120DDD020E9A98
:0D0DF80074262DF58274003CF583E493FF12
:0E0E0500120D6C120DE87F40120DDD020E9AE8
:100BC2007FAE120E2C7F10120E317F40120E317F3B
:100BD200B0120E317F81120E317FFF120E317FA1D2
:100BE200120E317FA6120E317FA8120E317F3F12F4
:100BF2000E317FC8120E317FD3120E2C7FD5120E0A
:100C0200317F80120E317FD8120E317F05120E31E4
:100C12007FD9120E317FF1120E317FDA120E317F3F
:100C220012120E317FDB120E317F30120E317F8DA8
:0D0C3200120E317F14120E317FAF020E3111
:100D4000E4FDFCED24B0FF120E2C7F10120E31904A
:100D50000000E4FF120E05A3E5826480458370F273
:0B0D60000DBD00010CED64084C70D8C4
:010D6B002265
:060870008F2D8D2EA9035F
:10087600E52D25E024AEFF120E31E52E540FFF12B2
:100886000E31E52E7804A2E713D8FB2410FF120ED2
:1008960031E9FF3395E0FEEF24E0FFEE34FFFEEF93
:1008A600C4F8540FC868FFEEC454F048AD07FCE91D
:1008B600FF3395E0FEEFC4F8540FC868FFEEC4544A
:1008C600F048FEEF2408FFEE34FEFEC3ED9FEC9EDB
:1008D600500A120DF80DBD00010C80D3E52D25E060
:1008E60024AFFF120E31E52E540FFF120E31E52E06
:1008F6007804A2E713D8FB2410FF120E31E9FF3368
:1009060095E0FEEFC4F8540FC868FFEEC454F048F3
:10091600FEEF2408FDEE34FEFCE9FF3395E0FEEF22
:10092600C4F8540FC868FFEEC454F048FEEF241014
:10093600FFEE34FEFEC3ED9FEC9E500A120DF80D3D
:06094600BD00010C80D38E
:01094C002288
:100D0F008F288D298B2A8A2B892CAB2AAA2BA92CC9
:100D1F0012081DFB601AAD29AF2812087074012547
:100D2F002CF52CE4352BF52B74082529F52980DAC1
:010D3F002291
:10061600EC4D6011E8497017ED33EC3304600DE4DE
:10062600FCFFFEFD22E933E8330470F802080812E5
:1006360007D358046009E4CC2481500628500902E7
:10064600081228400302080FC0E0EB4A7044B98044
:1006560006D0E0FB0207FEEF4E701CBD8008EBFFE4
:10066600EAFEE9FD80EBE98DF0A4FEE5F00206FF67
:10067600E9CDF9EAFEEBFFEF89F0A4FCE5F0CE89BF
:10068600F0A42EFFE435F0CD89F0A42DFEE435F07C
:100696008067EF4E7005BD80D780C3EF8BF0A4ACAA
:1006A600F0EE8BF0A42CFCE435F0F8EF8AF0A42CE5
:1006B600E5F038FCE433CB8DF0A42CFCE5F03BF8F8
:1006C600EE8AF0A42CFCE5F038F8E433CF89F0A4E8
:1006D6002CFCE5F038CF3400CE89F0A42FFFE5F0EE
:1006E6003EFEE433C98DF0A42EFEE5F039CD8AF046
:1006F600A42FFFE5F03EFEE43DFD33D0E0FB5007BE
:100706000BBB000F020812EC2CFCEF33FFEE33FE9E
:06071600ED33FD0207EACD
:10071C0074F8CC6480CCC86480C8F58204604FC384
:10072C00EB9FF5F0EA9E42F0E99D42F0E89C45F023
:10073C00603C501DE5825FFFE582D313CB5BCBF4AD
:10074C002B5582FB50280ABA002409B900200880D6
:10075C001DE5825BFBE582D313CF5FCFF4C3132F70
:10076C005582FF50090EBE00050DBD00010CC3EBF8
:10077C009FF5F0EA9E42F0E99D42F0E89C45F0605E
:09078C0007CC4820E701B3EC2280
:1007950075F020800E75F010800575F0087D007EDF
:1007A500007F003392D530D503120836EC33401064
:1007B500EF33FFEE33FEED33FDEC33FCD5F0ED22E8
:0E07C500E5F0247EA2D513CC92E7CDCEFF2224
:1007D300E9D2E7C933E833F892D5EDD2E7CD33EC6C
:0707E30033FC5002B2D522E5
:1007EA00EC30E7100FBF000C0EBE00080DBD000470
:1007FA000BEB6014A2D5EB13FCED92E7FD2274FF1C
:10080A00FCFDFEFF22E480F8A2D574FF13FC7D8074
:03081A00E480EF88
:100B420002094DE493A3F8E493A34003F68001F273
:100B520008DFF48029E493A3F85407240CC8C333B4
:100B6200C4540F4420C8834004F456800146F6DF83
:100B7200E4800B0102040810204080900E3FE47EC6
:100B8200019360BCA3FF543F30E509541FFEE49378
:100B9200A360010ECF54C025E060A840B8E493A33F
:100BA200FAE493A3F8E493A3C8C582C8CAC583CA6A
:100BB200F0A3C8C582C8CAC583CADFE9DEE780BE22
:010E500000A1
:10081D00BB010689828A83E0225002E722BBFE02D9
:09082D00E32289828A83E493220C
:0E083600C3E49FFFE49EFEE49DFDE49CFC22D3
:10084400EF4E6012EF60010EEDBB010B89828A83CB
:10085400F0A3DFFCDEFA2289F05007F709DFFCA9D8
:0C086400F022BBFEFCF309DFFCA9F0222F
:00000001FF
